{
  "transactions": [
    {
      "hash": "0xafeaf7787ebbd61f420789d301c92e66e564331daff2c06ebe403bf4817bc888",
      "transactionType": "CALL",
      "contractName": null,
      "contractAddress": "0x759991bf617bac3728983bf03fb4d744c51f2a4f",
      "function": "transferOwnership(address)",
      "arguments": [
        "0x769586A65825B028b005176F1ebbd3B82bB07Fb0"
      ],
      "transaction": {
        "from": "0x51d0ccf5256263cb6e0cd7557d508c2b66862dad",
        "to": "0x759991bf617bac3728983bf03fb4d744c51f2a4f",
        "gas": "0xc099",
        "value": "0x0",
        "input": "0xf2fde38b000000000000000000000000769586a65825b028b005176f1ebbd3b82bb07fb0",
        "nonce": "0x1a",
        "chainId": "0x1"
      },
      "additionalContracts": [],
      "isFixedGasLimit": false
    },
    {
      "hash": "0xd1c93eb7b8c731d7cbda1597c0d44fb8a4a76934a973d1ef865370996ba8782c",
      "transactionType": "CALL",
      "contractName": null,
      "contractAddress": "0x30e9a2082e297a2e18615224a6146f6c73f7b7a6",
      "function": "transferOwnership(address)",
      "arguments": [
        "0x769586A65825B028b005176F1ebbd3B82bB07Fb0"
      ],
      "transaction": {
        "from": "0x51d0ccf5256263cb6e0cd7557d508c2b66862dad",
        "to": "0x30e9a2082e297a2e18615224a6146f6c73f7b7a6",
        "gas": "0x9983",
        "value": "0x0",
        "input": "0xf2fde38b000000000000000000000000769586a65825b028b005176f1ebbd3b82bb07fb0",
        "nonce": "0x1b",
        "chainId": "0x1"
      },
      "additionalContracts": [],
      "isFixedGasLimit": false
    },
    {
      "hash": "0xa809433625dcbc2e199c9b952b66880eb934a9416ff75ee4944538ba728ae5fd",
      "transactionType": "CALL",
      "contractName": null,
      "contractAddress": "0x3ed9e25aebcd16860c4030692d47e0b116ae04a5",
      "function": "transferOwnership(address)",
      "arguments": [
        "0x769586A65825B028b005176F1ebbd3B82bB07Fb0"
      ],
      "transaction": {
        "from": "0x51d0ccf5256263cb6e0cd7557d508c2b66862dad",
        "to": "0x3ed9e25aebcd16860c4030692d47e0b116ae04a5",
        "gas": "0x11c21",
        "value": "0x0",
        "input": "0xf2fde38b000000000000000000000000769586a65825b028b005176f1ebbd3b82bb07fb0",
        "nonce": "0x1c",
        "chainId": "0x1"
      },
      "additionalContracts": [],
      "isFixedGasLimit": false
    }
  ],
  "receipts": [
    {
      "type": "0x2",
      "status": "0x1",
      "cumulativeGasUsed": "0xe7c0be",
      "logs": [
        {
          "address": "0x759991bf617bac3728983bf03fb4d744c51f2a4f",
          "topics": [
            "0x8be0079c531659141344cd1fd0a4f28419497f9722a3daafe3b4186f6b6457e0",
            "0x00000000000000000000000051d0ccf5256263cb6e0cd7557d508c2b66862dad",
            "0x000000000000000000000000769586a65825b028b005176f1ebbd3b82bb07fb0"
          ],
          "data": "0x",
          "blockHash": "0x090870a1dbc0cf8cf3a74e68e8417588aade6d218d0368fad3d55bccf79a2bd1",
          "blockNumber": "0x185996c",
          "blockTimestamp": "0x6a5684d7",
          "transactionHash": "0xafeaf7787ebbd61f420789d301c92e66e564331daff2c06ebe403bf4817bc888",
          "transactionIndex": "0xd9",
          "logIndex": "0x142",
          "removed": false
        }
      ],
      "logsBloom": "0x00000000000000000000000000000000000000000000000002800000000000000000000000000000000000000000000000000000000000000000000000000000100000000000000000000000000000000001002000000000000000000000000000000000000000000000000000000000000000000010000000000208000000400000000000000000000000000000000000000000000001000000000000000000000000000000000000000000000000000000000000000000000000000000000000000000000000000000000000000400000000000000000000000000000000000000000000000000000000000000000000000000080000000000000000000000",
      "transactionHash": "0xafeaf7787ebbd61f420789d301c92e66e564331daff2c06ebe403bf4817bc888",
      "transactionIndex": "0xd9",
      "blockHash": "0x090870a1dbc0cf8cf3a74e68e8417588aade6d218d0368fad3d55bccf79a2bd1",
      "blockNumber": "0x185996c",
      "gasUsed": "0x83b1",
      "effectiveGasPrice": "0x109b217e",
      "from": "0x51d0ccf5256263cb6e0cd7557d508c2b66862dad",
      "to": "0x759991bf617bac3728983bf03fb4d744c51f2a4f",
      "contractAddress": null
    },
    {
      "type": "0x2",
      "status": "0x1",
      "cumulativeGasUsed": "0xe82fe2",
      "logs": [
        {
          "address": "0x30e9a2082e297a2e18615224a6146f6c73f7b7a6",
          "topics": [
            "0x8be0079c531659141344cd1fd0a4f28419497f9722a3daafe3b4186f6b6457e0",
            "0x00000000000000000000000051d0ccf5256263cb6e0cd7557d508c2b66862dad",
            "0x000000000000000000000000769586a65825b028b005176f1ebbd3b82bb07fb0"
          ],
          "data": "0x",
          "blockHash": "0x090870a1dbc0cf8cf3a74e68e8417588aade6d218d0368fad3d55bccf79a2bd1",
          "blockNumber": "0x185996c",
          "blockTimestamp": "0x6a5684d7",
          "transactionHash": "0xd1c93eb7b8c731d7cbda1597c0d44fb8a4a76934a973d1ef865370996ba8782c",
          "transactionIndex": "0xda",
          "logIndex": "0x143",
          "removed": false
        }
      ],
      "logsBloom": "0x00000000000000000000000000000000000000000000000002800008000000000000000000000000000000000000000000000000000800000000000000000000100000000000000000000000000000000001002000000000000000000000000000000000000000000000000000000000000000000000000000000208000000400000010000000000000000000000000000000000000000000000000000000000000000000000000000000000000000000000000000000000000000000000000000000000000000000000000000000000000000000000000000000000000000000000000000000000000000000000000000000000080000000000000000000000",
      "transactionHash": "0xd1c93eb7b8c731d7cbda1597c0d44fb8a4a76934a973d1ef865370996ba8782c",
      "transactionIndex": "0xda",
      "blockHash": "0x090870a1dbc0cf8cf3a74e68e8417588aade6d218d0368fad3d55bccf79a2bd1",
      "blockNumber": "0x185996c",
      "gasUsed": "0x6f24",
      "effectiveGasPrice": "0x109b217e",
      "from": "0x51d0ccf5256263cb6e0cd7557d508c2b66862dad",
      "to": "0x30e9a2082e297a2e18615224a6146f6c73f7b7a6",
      "contractAddress": null
    },
    {
      "type": "0x2",
      "status": "0x1",
      "cumulativeGasUsed": "0xe8fd97",
      "logs": [
        {
          "address": "0x3ed9e25aebcd16860c4030692d47e0b116ae04a5",
          "topics": [
            "0x38d16b8cac22d99fc7c124b9cd0de2d3fa1faef420bfe791d8c362d765e22700",
            "0x00000000000000000000000051d0ccf5256263cb6e0cd7557d508c2b66862dad",
            "0x000000000000000000000000769586a65825b028b005176f1ebbd3b82bb07fb0"
          ],
          "data": "0x",
          "blockHash": "0x090870a1dbc0cf8cf3a74e68e8417588aade6d218d0368fad3d55bccf79a2bd1",
          "blockNumber": "0x185996c",
          "blockTimestamp": "0x6a5684d7",
          "transactionHash": "0xa809433625dcbc2e199c9b952b66880eb934a9416ff75ee4944538ba728ae5fd",
          "transactionIndex": "0xdb",
          "logIndex": "0x144",
          "removed": false
        }
      ],
      "logsBloom": "0x00000000000000000000000000000000000000000000000002000000000000000000000000000000000000000000000000000000000000000000000000000000100000000000000000000000000000000000002000000000000000000000000000000000000000010000000000000000000800000000000000000208000000000000000000000000000000000000010000000000000000000000000000000000000000000000020000000000000000000000000000000000000000000000000000002000000000000000000000000000000000000000000000000000000000000000000000000000000000000000000000000000080000000000000000004000",
      "transactionHash": "0xa809433625dcbc2e199c9b952b66880eb934a9416ff75ee4944538ba728ae5fd",
      "transactionIndex": "0xdb",
      "blockHash": "0x090870a1dbc0cf8cf3a74e68e8417588aade6d218d0368fad3d55bccf79a2bd1",
      "blockNumber": "0x185996c",
      "gasUsed": "0xcdb5",
      "effectiveGasPrice": "0x109b217e",
      "from": "0x51d0ccf5256263cb6e0cd7557d508c2b66862dad",
      "to": "0x3ed9e25aebcd16860c4030692d47e0b116ae04a5",
      "contractAddress": null
    }
  ],
  "libraries": [],
  "pending": [],
  "returns": {},
  "timestamp": 1784055006830,
  "chain": 1,
  "commit": "69a2899"
}