{
  "transactions": [
    {
      "hash": "0x1e16ada11f59c42417b6a8c7d0d3a4479db4261cb7d386790645f6af4e18d0cd",
      "transactionType": "CALL",
      "contractName": null,
      "contractAddress": "0x3ed9e25aebcd16860c4030692d47e0b116ae04a5",
      "function": "setSigner(address,address)",
      "arguments": [
        "0x5cbeb7A0df7Ed85D82a472FD56d81ed550f3Ea95",
        "0xC888f5e3Dd4FBeB37f6e1bA6FA68c83aB0cf7B2c"
      ],
      "transaction": {
        "from": "0x51d0ccf5256263cb6e0cd7557d508c2b66862dad",
        "to": "0x3ed9e25aebcd16860c4030692d47e0b116ae04a5",
        "gas": "0x12d56",
        "value": "0x0",
        "input": "0x17f9fad10000000000000000000000005cbeb7a0df7ed85d82a472fd56d81ed550f3ea95000000000000000000000000c888f5e3dd4fbeb37f6e1ba6fa68c83ab0cf7b2c",
        "nonce": "0x18",
        "chainId": "0x1"
      },
      "additionalContracts": [],
      "isFixedGasLimit": false
    },
    {
      "hash": "0x441474c2e355e97b9c074828f004c243356230f26776a26d6d8a31a40aa57bcc",
      "transactionType": "CALL",
      "contractName": null,
      "contractAddress": "0x759991bf617bac3728983bf03fb4d744c51f2a4f",
      "function": "createProxied(address,bytes)",
      "arguments": [
        "0x30E9A2082E297a2E18615224A6146f6c73F7b7A6",
        "0x00000000000000000000000000000000000000000000000000000000000000a0000000000000000000000000a0b86991c6218b36c1d19d4a2e9eb0ce3606eb480000000000000000000000003ed9e25aebcd16860c4030692d47e0b116ae04a500000000000000000000000000000000000000000000000000000000000000e0000000000000000000000000000000000000000000000000000000000000020000000000000000000000000000000000000000000000000000000000000000010000000000000000000000005cbeb7a0df7ed85d82a472fd56d81ed550f3ea9500000000000000000000000000000000000000000000000000000000000000080000000000000000000000000000000000000000000000000000000003b538000000000000000000000000000000000000000000000000000000000001da9c00000000000000000000000000000000000000000000000000000000000163f5000000000000000000000000000000000000000000000000000000000000ed4e0000000000000000000000000000000000000000000000000000000000009e3400000000000000000000000000000000000000000000000000000000000076a70000000000000000000000000000000000000000000000000000000000004f1a000000000000000000000000000000000000000000000000000000000000278d000000000000000000000000000000000000000000000000000000000000000008000000000000000000000000000000000000000000000000000000005e80a6bf00000000000000000000000000000000000000000000000000000000844db63e00000000000000000000000000000000000000000000000000000000bd014d7e00000000000000000000000000000000000000000000000000000000f5b4e4bd000000000000000000000000000000000000000000000000000000011b81f43d00000000000000000000000000000000000000000000000000000001414f03bd000000000000000000000000000000000000000000000000000000017a029afc00000000000000000000000000000000000000000000000000000001d88341bb"
      ],
      "transaction": {
        "from": "0x51d0ccf5256263cb6e0cd7557d508c2b66862dad",
        "to": "0x759991bf617bac3728983bf03fb4d744c51f2a4f",
        "gas": "0xbe606",
        "value": "0x0",
        "input": "0x19f3305700000000000000000000000030e9a2082e297a2e18615224a6146f6c73f7b7a60000000000000000000000000000000000000000000000000000000000000040000000000000000000000000000000000000000000000000000000000000032000000000000000000000000000000000000000000000000000000000000000a0000000000000000000000000a0b86991c6218b36c1d19d4a2e9eb0ce3606eb480000000000000000000000003ed9e25aebcd16860c4030692d47e0b116ae04a500000000000000000000000000000000000000000000000000000000000000e0000000000000000000000000000000000000000000000000000000000000020000000000000000000000000000000000000000000000000000000000000000010000000000000000000000005cbeb7a0df7ed85d82a472fd56d81ed550f3ea9500000000000000000000000000000000000000000000000000000000000000080000000000000000000000000000000000000000000000000000000003b538000000000000000000000000000000000000000000000000000000000001da9c00000000000000000000000000000000000000000000000000000000000163f5000000000000000000000000000000000000000000000000000000000000ed4e0000000000000000000000000000000000000000000000000000000000009e3400000000000000000000000000000000000000000000000000000000000076a70000000000000000000000000000000000000000000000000000000000004f1a000000000000000000000000000000000000000000000000000000000000278d000000000000000000000000000000000000000000000000000000000000000008000000000000000000000000000000000000000000000000000000005e80a6bf00000000000000000000000000000000000000000000000000000000844db63e00000000000000000000000000000000000000000000000000000000bd014d7e00000000000000000000000000000000000000000000000000000000f5b4e4bd000000000000000000000000000000000000000000000000000000011b81f43d00000000000000000000000000000000000000000000000000000001414f03bd000000000000000000000000000000000000000000000000000000017a029afc00000000000000000000000000000000000000000000000000000001d88341bb",
        "nonce": "0x19",
        "chainId": "0x1"
      },
      "additionalContracts": [
        {
          "transactionType": "CREATE",
          "contractName": "BeaconProxy",
          "address": "0x221014c0b6871f3f0d57f262ae6b5b6cd2901456",
          "initCode": "0x608060409080825261060080380380916100198285610342565b833981019082818303126102385761003081610365565b6020828101516001600160401b039391929184821161023857019084601f8301121561023857815161006181610379565b9261006e88519485610342565b8184528484019685838301011161023857815f9286809301895e84010152803b156102f0578551635c60da1b60e01b80825292916001600160a01b0316908481600481855afa9081156102e6575f916102b1575b503b15610254577fa3f0ad74e5423aebfd80d3ef4346578335a9a72aeaee59ff6cb3582b35133d5080546001600160a01b03191682179055865192817f1cf3b03a6cf19fa2baba4df148e9dcabedea7f8a5c07840e207e5c089be95d3e5f80a282511580159061024d575b610140575b87516101b790816104498239f35b6004848693819382525afa918215610243575f92610208575b5085519360608501908111858210176101f4578652602784527f416464726573733a206c6f772d6c6576656c2064656c65676174652063616c6c83850152660819985a5b195960ca1b84870152516101de945f918291845af4903d156101eb573d6101c381610379565b906101d088519283610342565b81525f81943d92013e610394565b505f808080808080610132565b60609250610394565b634e487b7160e01b5f52604160045260245ffd5b9091508281813d831161023c575b6102208183610342565b810103126102385761023190610365565b905f610159565b5f80fd5b503d610216565b86513d5f823e3d90fd5b505f61012d565b865162461bcd60e51b815260048101859052603060248201527f455243313936373a20626561636f6e20696d706c656d656e746174696f6e206960448201526f1cc81b9bdd08184818dbdb9d1c9858dd60821b6064820152608490fd5b90508481813d83116102df575b6102c88183610342565b81010312610238576102d990610365565b5f6100c2565b503d6102be565b88513d5f823e3d90fd5b855162461bcd60e51b815260048101849052602560248201527f455243313936373a206e657720626561636f6e206973206e6f74206120636f6e6044820152641d1c9858dd60da1b6064820152608490fd5b601f909101601f19168101906001600160401b038211908210176101f457604052565b51906001600160a01b038216820361023857565b6001600160401b0381116101f457601f01601f191660200190565b919290156103f657508151156103a8575090565b3b156103b15790565b60405162461bcd60e51b815260206004820152601d60248201527f416464726573733a2063616c6c20746f206e6f6e2d636f6e74726163740000006044820152606490fd5b8251909150156104095750805190602001fd5b604460209160405192839162461bcd60e51b83528160048401528051918291826024860152018484015e5f828201840152601f01601f19168101030190fdfe608080604052366100af575f8051602061019783398151915254635c60da1b60e01b8252602090829060049082906001600160a01b03165afa9081156100a4575f9161004c575b50610179565b905060203d60201161009d575b601f8101601f19168201916001600160401b03831181841017610089576100839260405201610134565b5f610046565b634e487b7160e01b5f52604160045260245ffd5b503d610059565b6040513d5f823e3d90fd5b5f8051602061019783398151915254604051635c60da1b60e01b815290602090829060049082906001600160a01b03165afa9081156100a4575f916100f45750610179565b602091503d821161012c575b601f8201601f19168101916001600160401b03831182841017610089576100839260405281019061015a565b3d9150610100565b602090607f190112610156576080516001600160a01b03811681036101565790565b5f80fd5b9081602091031261015657516001600160a01b03811681036101565790565b5f8091368280378136915af43d5f803e15610192573d5ff35b3d5ffdfea3f0ad74e5423aebfd80d3ef4346578335a9a72aeaee59ff6cb3582b35133d5000000000000000000000000030e9a2082e297a2e18615224a6146f6c73f7b7a600000000000000000000000000000000000000000000000000000000000000400000000000000000000000000000000000000000000000000000000000000364439fab910000000000000000000000000000000000000000000000000000000000000020000000000000000000000000000000000000000000000000000000000000032000000000000000000000000000000000000000000000000000000000000000a0000000000000000000000000a0b86991c6218b36c1d19d4a2e9eb0ce3606eb480000000000000000000000003ed9e25aebcd16860c4030692d47e0b116ae04a500000000000000000000000000000000000000000000000000000000000000e0000000000000000000000000000000000000000000000000000000000000020000000000000000000000000000000000000000000000000000000000000000010000000000000000000000005cbeb7a0df7ed85d82a472fd56d81ed550f3ea9500000000000000000000000000000000000000000000000000000000000000080000000000000000000000000000000000000000000000000000000003b538000000000000000000000000000000000000000000000000000000000001da9c00000000000000000000000000000000000000000000000000000000000163f5000000000000000000000000000000000000000000000000000000000000ed4e0000000000000000000000000000000000000000000000000000000000009e3400000000000000000000000000000000000000000000000000000000000076a70000000000000000000000000000000000000000000000000000000000004f1a000000000000000000000000000000000000000000000000000000000000278d000000000000000000000000000000000000000000000000000000000000000008000000000000000000000000000000000000000000000000000000005e80a6bf00000000000000000000000000000000000000000000000000000000844db63e00000000000000000000000000000000000000000000000000000000bd014d7e00000000000000000000000000000000000000000000000000000000f5b4e4bd000000000000000000000000000000000000000000000000000000011b81f43d00000000000000000000000000000000000000000000000000000001414f03bd000000000000000000000000000000000000000000000000000000017a029afc00000000000000000000000000000000000000000000000000000001d88341bb00000000000000000000000000000000000000000000000000000000"
        }
      ],
      "isFixedGasLimit": false
    }
  ],
  "receipts": [
    {
      "type": "0x2",
      "status": "0x1",
      "cumulativeGasUsed": "0x160bf55",
      "logs": [
        {
          "address": "0x3ed9e25aebcd16860c4030692d47e0b116ae04a5",
          "topics": [
            "0x2d025324f0a785e8c12d0a0d91a9caa49df4ef20ff87e0df7213a1d4f3157beb",
            "0x0000000000000000000000005cbeb7a0df7ed85d82a472fd56d81ed550f3ea95"
          ],
          "data": "0x000000000000000000000000c888f5e3dd4fbeb37f6e1ba6fa68c83ab0cf7b2c",
          "blockHash": "0x2b3db41f211c3e66331a47171e7ba0826d12fc307b50bf4aeffbd9f1aa1f5a2b",
          "blockNumber": "0x1859967",
          "blockTimestamp": "0x6a56849b",
          "transactionHash": "0x1e16ada11f59c42417b6a8c7d0d3a4479db4261cb7d386790645f6af4e18d0cd",
          "transactionIndex": "0x1cf",
          "logIndex": "0x144",
          "removed": false
        }
      ],
      "logsBloom": "0x00000000000000000000000000000000000000000000000000000000000000000000000000000000000000000000000000000000000000000000000000000000000000000000000000000000000000000000000000000000000000000000000000000000000200010000000000000000000000000000000000000200000000000000000000000000000000000000010000000000000000000000000000000000000000000001000000000000000000000800000000000000000000000000000000200000000000000000000100000000000000000000000000000000000000000000000000000000000000000000000000000000000000000000000000004000",
      "transactionHash": "0x1e16ada11f59c42417b6a8c7d0d3a4479db4261cb7d386790645f6af4e18d0cd",
      "transactionIndex": "0x1cf",
      "blockHash": "0x2b3db41f211c3e66331a47171e7ba0826d12fc307b50bf4aeffbd9f1aa1f5a2b",
      "blockNumber": "0x1859967",
      "gasUsed": "0xce0b",
      "effectiveGasPrice": "0x1158f0b6",
      "from": "0x51d0ccf5256263cb6e0cd7557d508c2b66862dad",
      "to": "0x3ed9e25aebcd16860c4030692d47e0b116ae04a5",
      "contractAddress": null
    },
    {
      "type": "0x2",
      "status": "0x1",
      "cumulativeGasUsed": "0x168e216",
      "logs": [
        {
          "address": "0x221014c0b6871f3f0d57f262ae6b5b6cd2901456",
          "topics": [
            "0x1cf3b03a6cf19fa2baba4df148e9dcabedea7f8a5c07840e207e5c089be95d3e",
            "0x00000000000000000000000030e9a2082e297a2e18615224a6146f6c73f7b7a6"
          ],
          "data": "0x",
          "blockHash": "0x2b3db41f211c3e66331a47171e7ba0826d12fc307b50bf4aeffbd9f1aa1f5a2b",
          "blockNumber": "0x1859967",
          "blockTimestamp": "0x6a56849b",
          "transactionHash": "0x441474c2e355e97b9c074828f004c243356230f26776a26d6d8a31a40aa57bcc",
          "transactionIndex": "0x1d0",
          "logIndex": "0x145",
          "removed": false
        },
        {
          "address": "0x759991bf617bac3728983bf03fb4d744c51f2a4f",
          "topics": [
            "0x4f2ce4e40f623ca765fc0167a25cb7842ceaafb8d82d3dec26ca0d0e0d2d4896",
            "0x000000000000000000000000221014c0b6871f3f0d57f262ae6b5b6cd2901456",
            "0x00000000000000000000000030e9a2082e297a2e18615224a6146f6c73f7b7a6"
          ],
          "data": "0x",
          "blockHash": "0x2b3db41f211c3e66331a47171e7ba0826d12fc307b50bf4aeffbd9f1aa1f5a2b",
          "blockNumber": "0x1859967",
          "blockTimestamp": "0x6a56849b",
          "transactionHash": "0x441474c2e355e97b9c074828f004c243356230f26776a26d6d8a31a40aa57bcc",
          "transactionIndex": "0x1d0",
          "logIndex": "0x146",
          "removed": false
        }
      ],
      "logsBloom": "0x00000000000000000000000000000000000000000000000000010000000000000000000000000000000000000000000000000000000000000000000000000000000000000000000000000000001000000000000000000000000000000000000010200000000000000000000000000000000000000010000000000000000000000000000000000000000000000000080000010020000001000000000000000000000000000000000000000004000200000000000000000000000000000000100000000000000002000000000000000410000000000000020000800000000000000000000000000000040000000000000000000000000000000000000000000000",
      "transactionHash": "0x441474c2e355e97b9c074828f004c243356230f26776a26d6d8a31a40aa57bcc",
      "transactionIndex": "0x1d0",
      "blockHash": "0x2b3db41f211c3e66331a47171e7ba0826d12fc307b50bf4aeffbd9f1aa1f5a2b",
      "blockNumber": "0x1859967",
      "gasUsed": "0x822c1",
      "effectiveGasPrice": "0x1158f0b6",
      "from": "0x51d0ccf5256263cb6e0cd7557d508c2b66862dad",
      "to": "0x759991bf617bac3728983bf03fb4d744c51f2a4f",
      "contractAddress": null
    }
  ],
  "libraries": [],
  "pending": [],
  "returns": {},
  "timestamp": 1784054956826,
  "chain": 1,
  "commit": "69a2899"
}